{
  "address": "0xe7f1725E7734CE288F8367e1Bb143E90bb3F0512",
  "abi": [
    {
      "inputs": [
        {
          "internalType": "string",
          "name": "_contractURI",
          "type": "string"
        },
        {
          "internalType": "string",
          "name": "_baseURI",
          "type": "string"
        },
        {
          "components": [
            {
              "internalType": "bool",
              "name": "isPublic",
              "type": "bool"
            },
            {
              "internalType": "uint32",
              "name": "startTime",
              "type": "uint32"
            },
            {
              "internalType": "uint32",
              "name": "endTime",
              "type": "uint32"
            },
            {
              "internalType": "uint160",
              "name": "price",
              "type": "uint160"
            }
          ],
          "internalType": "struct MastersDAO.SaleInfo",
          "name": "_saleInfo",
          "type": "tuple"
        },
        {
          "internalType": "address",
          "name": "_beneficiary",
          "type": "address"
        }
      ],
      "stateMutability": "nonpayable",
      "type": "constructor"
    },
    {
      "anonymous": false,
      "inputs": [
        {
          "indexed": true,
          "internalType": "address",
          "name": "owner",
          "type": "address"
        },
        {
          "indexed": true,
          "internalType": "address",
          "name": "approved",
          "type": "address"
        },
        {
          "indexed": true,
          "internalType": "uint256",
          "name": "tokenId",
          "type": "uint256"
        }
      ],
      "name": "Approval",
      "type": "event"
    },
    {
      "anonymous": false,
      "inputs": [
        {
          "indexed": true,
          "internalType": "address",
          "name": "owner",
          "type": "address"
        },
        {
          "indexed": true,
          "internalType": "address",
          "name": "operator",
          "type": "address"
        },
        {
          "indexed": false,
          "internalType": "bool",
          "name": "approved",
          "type": "bool"
        }
      ],
      "name": "ApprovalForAll",
      "type": "event"
    },
    {
      "anonymous": false,
      "inputs": [
        {
          "indexed": true,
          "internalType": "address",
          "name": "previousOwner",
          "type": "address"
        },
        {
          "indexed": true,
          "internalType": "address",
          "name": "newOwner",
          "type": "address"
        }
      ],
      "name": "OwnershipTransferred",
      "type": "event"
    },
    {
      "anonymous": false,
      "inputs": [
        {
          "indexed": false,
          "internalType": "address",
          "name": "account",
          "type": "address"
        }
      ],
      "name": "Paused",
      "type": "event"
    },
    {
      "anonymous": false,
      "inputs": [
        {
          "indexed": true,
          "internalType": "address",
          "name": "from",
          "type": "address"
        },
        {
          "indexed": true,
          "internalType": "address",
          "name": "to",
          "type": "address"
        },
        {
          "indexed": true,
          "internalType": "uint256",
          "name": "tokenId",
          "type": "uint256"
        }
      ],
      "name": "Transfer",
      "type": "event"
    },
    {
      "anonymous": false,
      "inputs": [
        {
          "indexed": false,
          "internalType": "address",
          "name": "account",
          "type": "address"
        }
      ],
      "name": "Unpaused",
      "type": "event"
    },
    {
      "inputs": [],
      "name": "ORIGINAL_SUPPLY",
      "outputs": [
        {
          "internalType": "uint16",
          "name": "",
          "type": "uint16"
        }
      ],
      "stateMutability": "view",
      "type": "function"
    },
    {
      "inputs": [
        {
          "internalType": "address",
          "name": "to",
          "type": "address"
        },
        {
          "internalType": "uint256",
          "name": "amount",
          "type": "uint256"
        }
      ],
      "name": "additionalMint",
      "outputs": [],
      "stateMutability": "nonpayable",
      "type": "function"
    },
    {
      "inputs": [
        {
          "internalType": "address",
          "name": "to",
          "type": "address"
        },
        {
          "internalType": "uint256",
          "name": "tokenId",
          "type": "uint256"
        }
      ],
      "name": "approve",
      "outputs": [],
      "stateMutability": "nonpayable",
      "type": "function"
    },
    {
      "inputs": [
        {
          "internalType": "address",
          "name": "owner",
          "type": "address"
        }
      ],
      "name": "balanceOf",
      "outputs": [
        {
          "internalType": "uint256",
          "name": "",
          "type": "uint256"
        }
      ],
      "stateMutability": "view",
      "type": "function"
    },
    {
      "inputs": [],
      "name": "beneficiary",
      "outputs": [
        {
          "internalType": "address",
          "name": "",
          "type": "address"
        }
      ],
      "stateMutability": "view",
      "type": "function"
    },
    {
      "inputs": [],
      "name": "contractURI",
      "outputs": [
        {
          "internalType": "string",
          "name": "",
          "type": "string"
        }
      ],
      "stateMutability": "view",
      "type": "function"
    },
    {
      "inputs": [
        {
          "internalType": "uint256",
          "name": "tokenId",
          "type": "uint256"
        }
      ],
      "name": "getApproved",
      "outputs": [
        {
          "internalType": "address",
          "name": "",
          "type": "address"
        }
      ],
      "stateMutability": "view",
      "type": "function"
    },
    {
      "inputs": [
        {
          "internalType": "address",
          "name": "owner",
          "type": "address"
        },
        {
          "internalType": "address",
          "name": "operator",
          "type": "address"
        }
      ],
      "name": "isApprovedForAll",
      "outputs": [
        {
          "internalType": "bool",
          "name": "",
          "type": "bool"
        }
      ],
      "stateMutability": "view",
      "type": "function"
    },
    {
      "inputs": [
        {
          "internalType": "address",
          "name": "",
          "type": "address"
        }
      ],
      "name": "itemReservation",
      "outputs": [
        {
          "internalType": "uint256",
          "name": "",
          "type": "uint256"
        }
      ],
      "stateMutability": "view",
      "type": "function"
    },
    {
      "inputs": [
        {
          "internalType": "uint8",
          "name": "amount",
          "type": "uint8"
        }
      ],
      "name": "mint",
      "outputs": [],
      "stateMutability": "payable",
      "type": "function"
    },
    {
      "inputs": [],
      "name": "name",
      "outputs": [
        {
          "internalType": "string",
          "name": "",
          "type": "string"
        }
      ],
      "stateMutability": "view",
      "type": "function"
    },
    {
      "inputs": [],
      "name": "owner",
      "outputs": [
        {
          "internalType": "address",
          "name": "",
          "type": "address"
        }
      ],
      "stateMutability": "view",
      "type": "function"
    },
    {
      "inputs": [
        {
          "internalType": "uint256",
          "name": "tokenId",
          "type": "uint256"
        }
      ],
      "name": "ownerOf",
      "outputs": [
        {
          "internalType": "address",
          "name": "",
          "type": "address"
        }
      ],
      "stateMutability": "view",
      "type": "function"
    },
    {
      "inputs": [],
      "name": "pause",
      "outputs": [],
      "stateMutability": "nonpayable",
      "type": "function"
    },
    {
      "inputs": [],
      "name": "paused",
      "outputs": [
        {
          "internalType": "bool",
          "name": "",
          "type": "bool"
        }
      ],
      "stateMutability": "view",
      "type": "function"
    },
    {
      "inputs": [],
      "name": "release",
      "outputs": [],
      "stateMutability": "nonpayable",
      "type": "function"
    },
    {
      "inputs": [],
      "name": "renounceOwnership",
      "outputs": [],
      "stateMutability": "nonpayable",
      "type": "function"
    },
    {
      "inputs": [
        {
          "internalType": "address",
          "name": "from",
          "type": "address"
        },
        {
          "internalType": "address",
          "name": "to",
          "type": "address"
        },
        {
          "internalType": "uint256",
          "name": "tokenId",
          "type": "uint256"
        }
      ],
      "name": "safeTransferFrom",
      "outputs": [],
      "stateMutability": "nonpayable",
      "type": "function"
    },
    {
      "inputs": [
        {
          "internalType": "address",
          "name": "from",
          "type": "address"
        },
        {
          "internalType": "address",
          "name": "to",
          "type": "address"
        },
        {
          "internalType": "uint256",
          "name": "tokenId",
          "type": "uint256"
        },
        {
          "internalType": "bytes",
          "name": "_data",
          "type": "bytes"
        }
      ],
      "name": "safeTransferFrom",
      "outputs": [],
      "stateMutability": "nonpayable",
      "type": "function"
    },
    {
      "inputs": [],
      "name": "saleInfo",
      "outputs": [
        {
          "internalType": "bool",
          "name": "isPublic",
          "type": "bool"
        },
        {
          "internalType": "uint32",
          "name": "startTime",
          "type": "uint32"
        },
        {
          "internalType": "uint32",
          "name": "endTime",
          "type": "uint32"
        },
        {
          "internalType": "uint160",
          "name": "price",
          "type": "uint160"
        }
      ],
      "stateMutability": "view",
      "type": "function"
    },
    {
      "inputs": [
        {
          "internalType": "address",
          "name": "operator",
          "type": "address"
        },
        {
          "internalType": "bool",
          "name": "approved",
          "type": "bool"
        }
      ],
      "name": "setApprovalForAll",
      "outputs": [],
      "stateMutability": "nonpayable",
      "type": "function"
    },
    {
      "inputs": [
        {
          "internalType": "string",
          "name": "_baseURI",
          "type": "string"
        }
      ],
      "name": "setBaseURI",
      "outputs": [],
      "stateMutability": "nonpayable",
      "type": "function"
    },
    {
      "inputs": [
        {
          "internalType": "address",
          "name": "itemContractAddr",
          "type": "address"
        },
        {
          "internalType": "uint256",
          "name": "additionalSupply",
          "type": "uint256"
        }
      ],
      "name": "setItemContract",
      "outputs": [],
      "stateMutability": "nonpayable",
      "type": "function"
    },
    {
      "inputs": [
        {
          "internalType": "bytes4",
          "name": "interfaceId",
          "type": "bytes4"
        }
      ],
      "name": "supportsInterface",
      "outputs": [
        {
          "internalType": "bool",
          "name": "",
          "type": "bool"
        }
      ],
      "stateMutability": "view",
      "type": "function"
    },
    {
      "inputs": [],
      "name": "symbol",
      "outputs": [
        {
          "internalType": "string",
          "name": "",
          "type": "string"
        }
      ],
      "stateMutability": "view",
      "type": "function"
    },
    {
      "inputs": [
        {
          "internalType": "uint256",
          "name": "index",
          "type": "uint256"
        }
      ],
      "name": "tokenByIndex",
      "outputs": [
        {
          "internalType": "uint256",
          "name": "",
          "type": "uint256"
        }
      ],
      "stateMutability": "view",
      "type": "function"
    },
    {
      "inputs": [
        {
          "internalType": "address",
          "name": "owner",
          "type": "address"
        },
        {
          "internalType": "uint256",
          "name": "index",
          "type": "uint256"
        }
      ],
      "name": "tokenOfOwnerByIndex",
      "outputs": [
        {
          "internalType": "uint256",
          "name": "tokenId",
          "type": "uint256"
        }
      ],
      "stateMutability": "view",
      "type": "function"
    },
    {
      "inputs": [
        {
          "internalType": "uint256",
          "name": "tokenId",
          "type": "uint256"
        }
      ],
      "name": "tokenURI",
      "outputs": [
        {
          "internalType": "string",
          "name": "",
          "type": "string"
        }
      ],
      "stateMutability": "view",
      "type": "function"
    },
    {
      "inputs": [],
      "name": "totalSupply",
      "outputs": [
        {
          "internalType": "uint256",
          "name": "",
          "type": "uint256"
        }
      ],
      "stateMutability": "view",
      "type": "function"
    },
    {
      "inputs": [
        {
          "internalType": "address",
          "name": "from",
          "type": "address"
        },
        {
          "internalType": "address",
          "name": "to",
          "type": "address"
        },
        {
          "internalType": "uint256",
          "name": "tokenId",
          "type": "uint256"
        }
      ],
      "name": "transferFrom",
      "outputs": [],
      "stateMutability": "nonpayable",
      "type": "function"
    },
    {
      "inputs": [
        {
          "internalType": "address",
          "name": "newOwner",
          "type": "address"
        }
      ],
      "name": "transferOwnership",
      "outputs": [],
      "stateMutability": "nonpayable",
      "type": "function"
    },
    {
      "inputs": [],
      "name": "unpause",
      "outputs": [],
      "stateMutability": "nonpayable",
      "type": "function"
    },
    {
      "inputs": [
        {
          "components": [
            {
              "internalType": "bool",
              "name": "isPublic",
              "type": "bool"
            },
            {
              "internalType": "uint32",
              "name": "startTime",
              "type": "uint32"
            },
            {
              "internalType": "uint32",
              "name": "endTime",
              "type": "uint32"
            },
            {
              "internalType": "uint160",
              "name": "price",
              "type": "uint160"
            }
          ],
          "internalType": "struct MastersDAO.SaleInfo",
          "name": "_saleInfo",
          "type": "tuple"
        }
      ],
      "name": "updateSaleInfo",
      "outputs": [],
      "stateMutability": "nonpayable",
      "type": "function"
    },
    {
      "inputs": [
        {
          "components": [
            {
              "internalType": "uint256",
              "name": "index",
              "type": "uint256"
            },
            {
              "internalType": "uint256",
              "name": "amount",
              "type": "uint256"
            },
            {
              "internalType": "address",
              "name": "redeemer",
              "type": "address"
            }
          ],
          "internalType": "struct MastersDAO.NFTVoucher",
          "name": "voucher",
          "type": "tuple"
        },
        {
          "internalType": "bytes",
          "name": "signature",
          "type": "bytes"
        },
        {
          "internalType": "uint8",
          "name": "amount",
          "type": "uint8"
        }
      ],
      "name": "whitelistMint",
      "outputs": [],
      "stateMutability": "payable",
      "type": "function"
    },
    {
      "inputs": [
        {
          "internalType": "address",
          "name": "",
          "type": "address"
        }
      ],
      "name": "whitelistRemain",
      "outputs": [
        {
          "internalType": "uint256",
          "name": "",
          "type": "uint256"
        }
      ],
      "stateMutability": "view",
      "type": "function"
    }
  ],
  "transactionHash": "0x9999f64d1d5d5c3b2c6f69efff6508793783769b6ea93fd9d0e1af2265e1b986",
  "args": [
    "ipfs://QmafcRHT1EwasBR7KteNTmctGGv4mkNAyVfWEwYAfT9XAg/",
    "ipfs://QmazDA25V9CyL55vuPJqqAH7dMe5TtAWjH2KdzXKHminH5/",
    {
      "isPublic": false,
      "startTime": 1654473872,
      "endTime": 1654559672,
      "price": "100000000000000000"
    },
    "0x5FbDB2315678afecb367f032d93F642f64180aa3"
  ],
  "numDeployments": 1,
  "solcInputHash": "49d39ec91157616477069cb17f462362",
  "bytecode": "0x6101606040523480156200001257600080fd5b50604051620036db380380620036db83398101604081905262000035916200041c565b6040518060400160405280600a8152602001694d61737465727344414f60b01b815250604051806040016040528060018152602001603160f81b8152506040518060400160405280600a8152602001694d61737465727344414f60b01b8152506040518060400160405280600381526020016244464160e81b8152508160019080519060200190620000c9929190620002be565b508051620000df906002906020840190620002be565b505050620000fc620000f66200026860201b60201c565b6200026c565b6007805460ff60a01b19169055815160208084019190912082518383012060e08290526101008190524660a0818152604080517f8b73c3c69bb8fe3d512ecc4cf759cc79239f7b179b0ffacaa9a75d522b39400f81880181905281830187905260608201869052608082019490945230818401528151808203909301835260c00190528051940193909320919290916080523060601b60c0526101205250508551620001b29250600891506020870190620002be565b508251620001c8906009906020860190620002be565b508151600d80546020850151604086015160609687015164ffffffffff1990931694151564ffffffff0019169490941761010063ffffffff9283160217600160281b600160e81b031916650100000000009190941602600160481b600160e81b0319169290921769010000000000000000006001600160a01b0390931692909202919091179055901b6001600160601b0319166101405250620005d29050565b3390565b600780546001600160a01b038381166001600160a01b0319831681179093556040519116919082907f8be0079c531659141344cd1fd0a4f28419497f9722a3daafe3b4186f6b6457e090600090a35050565b828054620002cc9062000566565b90600052602060002090601f016020900481019282620002f057600085556200033b565b82601f106200030b57805160ff19168380011785556200033b565b828001600101855582156200033b579182015b828111156200033b5782518255916020019190600101906200031e565b50620003499291506200034d565b5090565b5b808211156200034957600081556001016200034e565b80516200037181620005b9565b919050565b600082601f83011262000387578081fd5b81516001600160401b03811115620003a357620003a3620005a3565b6020620003b9601f8301601f1916820162000533565b8281528582848701011115620003cd578384fd5b835b83811015620003ec578581018301518282018401528201620003cf565b83811115620003fd57848385840101525b5095945050505050565b805163ffffffff811681146200037157600080fd5b60008060008084860360e081121562000433578485fd5b85516001600160401b03808211156200044a578687fd5b6200045889838a0162000376565b965060208801519150808211156200046e578586fd5b506200047d8882890162000376565b9450506080603f198201121562000492578283fd5b506200049d62000508565b60408601518015158114620004b0578384fd5b8152620004c06060870162000407565b6020820152620004d36080870162000407565b604082015260a0860151620004e881620005b9565b60608201529150620004fd60c0860162000364565b905092959194509250565b604051608081016001600160401b03811182821017156200052d576200052d620005a3565b60405290565b604051601f8201601f191681016001600160401b03811182821017156200055e576200055e620005a3565b604052919050565b600181811c908216806200057b57607f821691505b602082108114156200059d57634e487b7160e01b600052602260045260246000fd5b50919050565b634e487b7160e01b600052604160045260246000fd5b6001600160a01b0381168114620005cf57600080fd5b50565b60805160a05160c05160601c60e05161010051610120516101405160601c6130a16200063a600039600081816103540152610ea1015260006122b701526000612306015260006122e10152600061223a015260006122640152600061228e01526130a16000f3fe6080604052600436106102045760003560e01c806370a0823111610118578063a22cb465116100a0578063d7b418931161006f578063d7b418931461063b578063e8a3d48514610668578063e985e9c51461067d578063ee31387d146106c6578063f2fde38b146106d957600080fd5b8063a22cb465146105bb578063ad37bbf6146105db578063b88d4fde146105fb578063c87b56dd1461061b57600080fd5b806386d1a69f116100e757806386d1a69f146104c75780638da5cb5b146104dc5780638e3695b8146104fa57806395d89b411461057957806396674df01461058e57600080fd5b806370a082311461045d578063715018a61461047d5780637a58d7f6146104925780638456cb59146104b257600080fd5b806338af3eed1161019b57806355f804b31161016a57806355f804b3146103cb5780635c975abb146103eb5780635ef73b0d1461040a5780636352211e1461042a5780636ecd23061461044a57600080fd5b806338af3eed146103425780633f4ba83a1461037657806342842e0e1461038b5780634f6ccce7146103ab57600080fd5b80630ba0e2de116101d75780630ba0e2de146102ba57806318160ddd146102e357806323b872dd146103025780632f745c591461032257600080fd5b806301ffc9a71461020957806306fdde031461023e578063081812fc14610260578063095ea7b314610298575b600080fd5b34801561021557600080fd5b50610229610224366004612a2f565b6106f9565b60405190151581526020015b60405180910390f35b34801561024a57600080fd5b50610253610766565b6040516102359190612bf2565b34801561026c57600080fd5b5061028061027b366004612b28565b6107f8565b6040516001600160a01b039091168152602001610235565b3480156102a457600080fd5b506102b86102b3366004612a04565b61088a565b005b3480156102c657600080fd5b506102d061271081565b60405161ffff9091168152602001610235565b3480156102ef57600080fd5b506004545b604051908152602001610235565b34801561030e57600080fd5b506102b861031d3660046128be565b6109a2565b34801561032e57600080fd5b506102f461033d366004612a04565b6109d3565b34801561034e57600080fd5b506102807f000000000000000000000000000000000000000000000000000000000000000081565b34801561038257600080fd5b506102b8610a9e565b34801561039757600080fd5b506102b86103a63660046128be565b610ad2565b3480156103b757600080fd5b506102f46103c6366004612b28565b610aed565b3480156103d757600080fd5b506102b86103e6366004612a67565b610ba8565b3480156103f757600080fd5b50600754600160a01b900460ff16610229565b34801561041657600080fd5b506102b8610425366004612a04565b610bde565b34801561043657600080fd5b50610280610445366004612b28565b610c8c565b6102b8610458366004612b40565b610ca3565b34801561046957600080fd5b506102f461047836600461286a565b610d2e565b34801561048957600080fd5b506102b8610dff565b34801561049e57600080fd5b506102b86104ad366004612b11565b610e33565b3480156104be57600080fd5b506102b8610e6a565b3480156104d357600080fd5b506102b8610e9c565b3480156104e857600080fd5b506007546001600160a01b0316610280565b34801561050657600080fd5b50600d546105419060ff81169063ffffffff6101008204811691650100000000008104909116906001600160a01b03600160481b9091041684565b6040516102359493929190931515845263ffffffff9283166020850152911660408301526001600160a01b0316606082015260800190565b34801561058557600080fd5b50610253610ec6565b34801561059a57600080fd5b506102f46105a936600461286a565b600b6020526000908152604090205481565b3480156105c757600080fd5b506102b86105d63660046129d7565b610ed5565b3480156105e757600080fd5b506102b86105f6366004612a04565b610f9a565b34801561060757600080fd5b506102b86106163660046128fe565b610fe0565b34801561062757600080fd5b50610253610636366004612b28565b611018565b34801561064757600080fd5b506102f461065636600461286a565b600c6020526000908152604090205481565b34801561067457600080fd5b506102536110ed565b34801561068957600080fd5b50610229610698366004612886565b6001600160a01b03918216600090815260066020908152604080832093909416825291909152205460ff1690565b6102b86106d4366004612aa7565b61117b565b3480156106e557600080fd5b506102b86106f436600461286a565b611337565b60006001600160e01b031982166380ac58cd60e01b148061072a57506001600160e01b03198216635b5e139f60e01b145b8061074557506001600160e01b0319821663780e9d6360e01b145b8061076057506301ffc9a760e01b6001600160e01b03198316145b92915050565b60606001805461077590612dab565b80601f01602080910402602001604051908101604052809291908181526020018280546107a190612dab565b80156107ee5780601f106107c3576101008083540402835291602001916107ee565b820191906000526020600020905b8154815290600101906020018083116107d157829003601f168201915b5050505050905090565b6000610805826004541190565b61086e5760405162461bcd60e51b815260206004820152602f60248201527f4552433732315073693a20617070726f76656420717565727920666f72206e6f60448201526e3732bc34b9ba32b73a103a37b5b2b760891b60648201526084015b60405180910390fd5b506000908152600560205260409020546001600160a01b031690565b600061089582610c8c565b9050806001600160a01b0316836001600160a01b031614156109055760405162461bcd60e51b8152602060048201526024808201527f4552433732315073693a20617070726f76616c20746f2063757272656e74206f6044820152633bb732b960e11b6064820152608401610865565b336001600160a01b038216148061092157506109218133610698565b6109935760405162461bcd60e51b815260206004820152603b60248201527f4552433732315073693a20617070726f76652063616c6c6572206973206e6f7460448201527f206f776e6572206e6f7220617070726f76656420666f7220616c6c00000000006064820152608401610865565b61099d83836113cf565b505050565b6109ac338261143d565b6109c85760405162461bcd60e51b815260040161086590612cb9565b61099d83838361152c565b60008060005b600454811015610a49576109ee816004541190565b8015610a1357506109fe81610c8c565b6001600160a01b0316856001600160a01b0316145b15610a375783821415610a295791506107609050565b81610a3381612de0565b9250505b80610a4181612de0565b9150506109d9565b5060405162461bcd60e51b8152602060048201526024808201527f4552433732315073693a206f776e657220696e646578206f7574206f6620626f604482015263756e647360e01b6064820152608401610865565b6007546001600160a01b03163314610ac85760405162461bcd60e51b815260040161086590612c84565b610ad0611725565b565b61099d83838360405180602001604052806000815250610fe0565b6000610af860045490565b8210610b545760405162461bcd60e51b815260206004820152602560248201527f4552433732315073693a20676c6f62616c20696e646578206f7574206f6620626044820152646f756e647360d81b6064820152608401610865565b6000805b600454811015610ba157610b6d816004541190565b15610b8f5783821415610b81579392505050565b81610b8b81612de0565b9250505b80610b9981612de0565b915050610b58565b5050919050565b6007546001600160a01b03163314610bd25760405162461bcd60e51b815260040161086590612c84565b61099d6009838361277b565b600754600160a01b900460ff1615610c085760405162461bcd60e51b815260040161086590612c5a565b336000908152600b6020526040902054818110610c5357610c2983836117c2565b336000908152600b602052604081208054849290610c48908490612d68565b9091555061099d9050565b801561099d57610c6383826117c2565b336000908152600b602052604081208054839290610c82908490612d68565b9091555050505050565b6000806000610c9a84611934565b50949350505050565b600754600160a01b900460ff1615610ccd5760405162461bcd60e51b815260040161086590612c5a565b600d5460ff16610d145760405162461bcd60e51b81526020600482015260126024820152716e6f7420696e207075626c69632073616c6560701b6044820152606401610865565b610d1d816119cd565b610d2b335b8260ff166117c2565b50565b60006001600160a01b038216610d9c5760405162461bcd60e51b815260206004820152602d60248201527f4552433732315073693a2062616c616e636520717565727920666f722074686560448201526c207a65726f206164647265737360981b6064820152608401610865565b6000805b600454811015610df857610db5816004541190565b15610de857610dc381610c8c565b6001600160a01b0316846001600160a01b03161415610de857610de582612de0565b91505b610df181612de0565b9050610da0565b5092915050565b6007546001600160a01b03163314610e295760405162461bcd60e51b815260040161086590612c84565b610ad06000611ad9565b6007546001600160a01b03163314610e5d5760405162461bcd60e51b815260040161086590612c84565b80600d61099d8282612e66565b6007546001600160a01b03163314610e945760405162461bcd60e51b815260040161086590612c84565b610ad0611b2b565b610ad07f000000000000000000000000000000000000000000000000000000000000000047611b90565b60606002805461077590612dab565b6001600160a01b038216331415610f2e5760405162461bcd60e51b815260206004820152601c60248201527f4552433732315073693a20617070726f766520746f2063616c6c6572000000006044820152606401610865565b3360008181526006602090815260408083206001600160a01b03871680855290835292819020805460ff191686151590811790915590519081529192917f17307eab39ab6107e8899845ad3d59bd9653f200f220920489ca2b5937696c31910160405180910390a35050565b6007546001600160a01b03163314610fc45760405162461bcd60e51b815260040161086590612c84565b6001600160a01b039091166000908152600b6020526040902055565b610fea338361143d565b6110065760405162461bcd60e51b815260040161086590612cb9565b61101284848484611ca9565b50505050565b6060611025826004541190565b6110845760405162461bcd60e51b815260206004820152602a60248201527f4552433732315073693a2055524920717565727920666f72206e6f6e657869736044820152693a32b73a103a37b5b2b760b11b6064820152608401610865565b600061109b60408051602081019091526000815290565b905060008151116110bb57604051806020016040528060008152506110e6565b806110c584611cde565b6040516020016110d6929190612b86565b6040516020818303038152906040525b9392505050565b600880546110fa90612dab565b80601f016020809104026020016040519081016040528092919081815260200182805461112690612dab565b80156111735780601f1061114857610100808354040283529160200191611173565b820191906000526020600020905b81548152906001019060200180831161115657829003601f168201915b505050505081565b600754600160a01b900460ff16156111a55760405162461bcd60e51b815260040161086590612c5a565b600d5460ff16156111f05760405162461bcd60e51b81526020600482015260156024820152746e6f7420696e2077686974656c6973742073616c6560581b6044820152606401610865565b8335600881901c6000908152600a6020526040902054600160ff1b60ff9092169190911c1661127e57611224848484611df8565b6020840135600c600061123d606088016040890161286a565b6001600160a01b03166001600160a01b03168152602001908152602001600020600082825461126c9190612d0d565b9091555061127e9050600a8535611f1c565b336000908152600c602052604090205460ff821611156112d45760405162461bcd60e51b81526020600482015260116024820152703737ba1032b737bab3b4103932b6b0b4b760791b6044820152606401610865565b6112dd816119cd565b6112e633610d22565b336000908152600c60205260408120805460ff84169290611308908490612d68565b9091555050336000908152600c6020526040902054611012575050336000908152600c60205260408120555050565b6007546001600160a01b031633146113615760405162461bcd60e51b815260040161086590612c84565b6001600160a01b0381166113c65760405162461bcd60e51b815260206004820152602660248201527f4f776e61626c653a206e6577206f776e657220697320746865207a65726f206160448201526564647265737360d01b6064820152608401610865565b610d2b81611ad9565b600081815260056020526040902080546001600160a01b0319166001600160a01b038416908117909155819061140482610c8c565b6001600160a01b03167f8c5be1e5ebec7d5bd14f71427d1e84f3dd0314c0f7b2291e5b200ac8c7c3b92560405160405180910390a45050565b600061144a826004541190565b6114ae5760405162461bcd60e51b815260206004820152602f60248201527f4552433732315073693a206f70657261746f7220717565727920666f72206e6f60448201526e3732bc34b9ba32b73a103a37b5b2b760891b6064820152608401610865565b60006114b983610c8c565b9050806001600160a01b0316846001600160a01b031614806114f45750836001600160a01b03166114e9846107f8565b6001600160a01b0316145b8061152457506001600160a01b0380821660009081526006602090815260408083209388168352929052205460ff165b949350505050565b60008061153883611934565b91509150846001600160a01b0316826001600160a01b0316146115b25760405162461bcd60e51b815260206004820152602c60248201527f4552433732315073693a207472616e73666572206f6620746f6b656e2074686160448201526b3a1034b9903737ba1037bbb760a11b6064820152608401610865565b6001600160a01b0384166116185760405162461bcd60e51b815260206004820152602760248201527f4552433732315073693a207472616e7366657220746f20746865207a65726f206044820152666164647265737360c81b6064820152608401610865565b6116258585856001611f48565b6116306000846113cf565b600061163d846001612d0d565b600881901c600090815260208190526040902054909150600160ff1b60ff83161c1615801561166d575060045481105b156116a357600081815260036020526040812080546001600160a01b0319166001600160a01b0389161790556116a39082611f1c565b600084815260036020526040902080546001600160a01b0319166001600160a01b0387161790558184146116dc576116dc600085611f1c565b83856001600160a01b0316876001600160a01b03167fddf252ad1be2c89b69c2b068fc378daa952ba7f163c4a11628f55a4df523b3ef60405160405180910390a4505050505050565b600754600160a01b900460ff166117755760405162461bcd60e51b815260206004820152601460248201527314185d5cd8589b194e881b9bdd081c185d5cd95960621b6044820152606401610865565b6007805460ff60a01b191690557f5db9ee0a495bf2e6ff9c91a7834c1ba4fdd244a5e8aa4e537bd38aeae4b073aa335b6040516001600160a01b03909116815260200160405180910390a1565b600454816118205760405162461bcd60e51b815260206004820152602560248201527f4552433732315073693a207175616e74697479206d7573742062652067726561604482015264074657220360dc1b6064820152608401610865565b6001600160a01b0383166118825760405162461bcd60e51b815260206004820152602360248201527f4552433732315073693a206d696e7420746f20746865207a65726f206164647260448201526265737360e81b6064820152608401610865565b61188f6000848385611f48565b81600460008282546118a19190612d0d565b9091555050600081815260036020526040812080546001600160a01b0319166001600160a01b0386161790556118d79082611f1c565b805b6118e38383612d0d565b8110156110125760405181906001600160a01b038616906000907fddf252ad1be2c89b69c2b068fc378daa952ba7f163c4a11628f55a4df523b3ef908290a48061192c81612de0565b9150506118d9565b600080611942836004541190565b6119a35760405162461bcd60e51b815260206004820152602c60248201527f4552433732315073693a206f776e657220717565727920666f72206e6f6e657860448201526b34b9ba32b73a103a37b5b2b760a11b6064820152608401610865565b6119ac83611f77565b6000818152600360205260409020546001600160a01b031694909350915050565b600560ff82161115611a155760405162461bcd60e51b81526020600482015260116024820152706578636565642062617463682073697a6560781b6044820152606401610865565b61271060ff8216611a2560045490565b611a2f9190612d0d565b1115611a6d5760405162461bcd60e51b815260206004820152600d60248201526c65786365656420737570706c7960981b6044820152606401610865565b600d543490611a909060ff841690600160481b90046001600160a01b0316612d39565b6001600160a01b03161015610d2b5760405162461bcd60e51b815260206004820152600f60248201526e1b9bdd08195b9bdd59da08199d5b99608a1b6044820152606401610865565b600780546001600160a01b038381166001600160a01b0319831681179093556040519116919082907f8be0079c531659141344cd1fd0a4f28419497f9722a3daafe3b4186f6b6457e090600090a35050565b600754600160a01b900460ff1615611b555760405162461bcd60e51b815260040161086590612c5a565b6007805460ff60a01b1916600160a01b1790557f62e78cea01bee320cd4e420270b5ea74000d11b0c9f74754ebdbfc544b05a2586117a53390565b80471015611be05760405162461bcd60e51b815260206004820152601d60248201527f416464726573733a20696e73756666696369656e742062616c616e63650000006044820152606401610865565b6000826001600160a01b03168260405160006040518083038185875af1925050503d8060008114611c2d576040519150601f19603f3d011682016040523d82523d6000602084013e611c32565b606091505b505090508061099d5760405162461bcd60e51b815260206004820152603a60248201527f416464726573733a20756e61626c6520746f2073656e642076616c75652c207260448201527f6563697069656e74206d617920686176652072657665727465640000000000006064820152608401610865565b611cb484848461152c565b611cc2848484600185611f83565b6110125760405162461bcd60e51b815260040161086590612c05565b606081611d025750506040805180820190915260018152600360fc1b602082015290565b8160005b8115611d2c5780611d1681612de0565b9150611d259050600a83612d25565b9150611d06565b60008167ffffffffffffffff811115611d5557634e487b7160e01b600052604160045260246000fd5b6040519080825280601f01601f191660200182016040528015611d7f576020820181803683370190505b5090505b841561152457611d94600183612d68565b9150611da1600a86612dfb565b611dac906030612d0d565b60f81b818381518110611dcf57634e487b7160e01b600052603260045260246000fd5b60200101906001600160f81b031916908160001a905350611df1600a86612d25565b9450611d83565b6000611e697f981de026d96cc796176cce8cfb916f9b757617cba01822e940ad5ec84dcc22ab853560208701353360408051602081019590955284019290925260608301526001600160a01b0316608082015260a001604051602081830303815290604052805190602001206120c6565b9050611eab8184848080601f01602080910402602001604051908101604052809392919081815260200183838082843760009201919091525061211492505050565b6001600160a01b0316611ec66007546001600160a01b031690565b6001600160a01b0316146110125760405162461bcd60e51b815260206004820152601760248201527f696e76616c6964206f7220756e617574686f72697a65640000000000000000006044820152606401610865565b600881901c600090815260209290925260409091208054600160ff1b60ff9093169290921c9091179055565b600754600160a01b900460ff1615611f725760405162461bcd60e51b815260040161086590612c5a565b611012565b60006107608183612138565b60006001600160a01b0385163b156120b957506001835b611fa48486612d0d565b8110156120b357604051630a85bd0160e11b81526001600160a01b0387169063150b7a0290611fdd9033908b9086908990600401612bb5565b602060405180830381600087803b158015611ff757600080fd5b505af1925050508015612027575060408051601f3d908101601f1916820190925261202491810190612a4b565b60015b612081573d808015612055576040519150601f19603f3d011682016040523d82523d6000602084013e61205a565b606091505b5080516120795760405162461bcd60e51b815260040161086590612c05565b805181602001fd5b82801561209e57506001600160e01b03198116630a85bd0160e11b145b925050806120ab81612de0565b915050611f9a565b506120bd565b5060015b95945050505050565b60006107606120d361222d565b8360405161190160f01b6020820152602281018390526042810182905260009060620160405160208183030381529060405280519060200120905092915050565b60008060006121238585612354565b91509150612130816123c4565b509392505050565b600881901c60008181526020849052604081205490919060ff808516919082181c801561217d57612168816125c5565b60ff168203600884901b179350505050610760565b600083116121ea5760405162461bcd60e51b815260206004820152603460248201527f4269744d6170733a205468652073657420626974206265666f7265207468652060448201527334b73232bc103237b2b9b713ba1032bc34b9ba1760611b6064820152608401610865565b50600019909101600081815260208690526040902054909190801561222857612212816125c5565b60ff0360ff16600884901b179350505050610760565b61217d565b6000306001600160a01b037f00000000000000000000000000000000000000000000000000000000000000001614801561228657507f000000000000000000000000000000000000000000000000000000000000000046145b156122b057507f000000000000000000000000000000000000000000000000000000000000000090565b50604080517f00000000000000000000000000000000000000000000000000000000000000006020808301919091527f0000000000000000000000000000000000000000000000000000000000000000828401527f000000000000000000000000000000000000000000000000000000000000000060608301524660808301523060a0808401919091528351808403909101815260c0909201909252805191012090565b60008082516041141561238b5760208301516040840151606085015160001a61237f8782858561263d565b945094505050506123bd565b8251604014156123b557602083015160408401516123aa86838361272a565b9350935050506123bd565b506000905060025b9250929050565b60008160048111156123e657634e487b7160e01b600052602160045260246000fd5b14156123ef5750565b600181600481111561241157634e487b7160e01b600052602160045260246000fd5b141561245f5760405162461bcd60e51b815260206004820152601860248201527f45434453413a20696e76616c6964207369676e617475726500000000000000006044820152606401610865565b600281600481111561248157634e487b7160e01b600052602160045260246000fd5b14156124cf5760405162461bcd60e51b815260206004820152601f60248201527f45434453413a20696e76616c6964207369676e6174757265206c656e677468006044820152606401610865565b60038160048111156124f157634e487b7160e01b600052602160045260246000fd5b141561254a5760405162461bcd60e51b815260206004820152602260248201527f45434453413a20696e76616c6964207369676e6174757265202773272076616c604482015261756560f01b6064820152608401610865565b600481600481111561256c57634e487b7160e01b600052602160045260246000fd5b1415610d2b5760405162461bcd60e51b815260206004820152602260248201527f45434453413a20696e76616c6964207369676e6174757265202776272076616c604482015261756560f01b6064820152608401610865565b60006040518061012001604052806101008152602001612f6c610100913960f87e818283848586878898a8b8c8d8e8f929395969799a9b9d9e9faaeb6bedeeff61260e85612763565b02901c8151811061262f57634e487b7160e01b600052603260045260246000fd5b016020015160f81c92915050565b6000807f7fffffffffffffffffffffffffffffff5d576e7357a4501ddfe92f46681b20a08311156126745750600090506003612721565b8460ff16601b1415801561268c57508460ff16601c14155b1561269d5750600090506004612721565b6040805160008082526020820180845289905260ff881692820192909252606081018690526080810185905260019060a0016020604051602081039080840390855afa1580156126f1573d6000803e3d6000fd5b5050604051601f1901519150506001600160a01b03811661271a57600060019250925050612721565b9150600090505b94509492505050565b6000806001600160ff1b0383168161274760ff86901c601b612d0d565b90506127558782888561263d565b935093505050935093915050565b600080821161277157600080fd5b5060008190031690565b82805461278790612dab565b90600052602060002090601f0160209004810192826127a957600085556127ef565b82601f106127c25782800160ff198235161785556127ef565b828001600101855582156127ef579182015b828111156127ef5782358255916020019190600101906127d4565b506127fb9291506127ff565b5090565b5b808211156127fb5760008155600101612800565b60008083601f840112612825578182fd5b50813567ffffffffffffffff81111561283c578182fd5b6020830191508360208285010111156123bd57600080fd5b803560ff8116811461286557600080fd5b919050565b60006020828403121561287b578081fd5b81356110e681612f32565b60008060408385031215612898578081fd5b82356128a381612f32565b915060208301356128b381612f32565b809150509250929050565b6000806000606084860312156128d2578081fd5b83356128dd81612f32565b925060208401356128ed81612f32565b929592945050506040919091013590565b60008060008060808587031215612913578081fd5b843561291e81612f32565b9350602085013561292e81612f32565b925060408501359150606085013567ffffffffffffffff80821115612951578283fd5b818701915087601f830112612964578283fd5b81358181111561297657612976612e3b565b604051601f8201601f19908116603f0116810190838211818310171561299e5761299e612e3b565b816040528281528a60208487010111156129b6578586fd5b82602086016020830137918201602001949094529598949750929550505050565b600080604083850312156129e9578182fd5b82356129f481612f32565b915060208301356128b381612f47565b60008060408385031215612a16578182fd5b8235612a2181612f32565b946020939093013593505050565b600060208284031215612a40578081fd5b81356110e681612f55565b600060208284031215612a5c578081fd5b81516110e681612f55565b60008060208385031215612a79578182fd5b823567ffffffffffffffff811115612a8f578283fd5b612a9b85828601612814565b90969095509350505050565b60008060008084860360a0811215612abd578485fd5b6060811215612aca578485fd5b50849350606085013567ffffffffffffffff811115612ae7578384fd5b612af387828801612814565b9094509250612b06905060808601612854565b905092959194509250565b600060808284031215612b22578081fd5b50919050565b600060208284031215612b39578081fd5b5035919050565b600060208284031215612b51578081fd5b6110e682612854565b60008151808452612b72816020860160208601612d7f565b601f01601f19169290920160200192915050565b60008351612b98818460208801612d7f565b835190830190612bac818360208801612d7f565b01949350505050565b6001600160a01b0385811682528416602082015260408101839052608060608201819052600090612be890830184612b5a565b9695505050505050565b6020815260006110e66020830184612b5a565b60208082526035908201527f4552433732315073693a207472616e7366657220746f206e6f6e20455243373260408201527418a932b1b2b4bb32b91034b6b83632b6b2b73a32b960591b606082015260800190565b60208082526010908201526f14185d5cd8589b194e881c185d5cd95960821b604082015260600190565b6020808252818101527f4f776e61626c653a2063616c6c6572206973206e6f7420746865206f776e6572604082015260600190565b60208082526034908201527f4552433732315073693a207472616e736665722063616c6c6572206973206e6f6040820152731d081bdddb995c881b9bdc88185c1c1c9bdd995960621b606082015260800190565b60008219821115612d2057612d20612e0f565b500190565b600082612d3457612d34612e25565b500490565b60006001600160a01b0382811684821681151582840482111615612d5f57612d5f612e0f565b02949350505050565b600082821015612d7a57612d7a612e0f565b500390565b60005b83811015612d9a578181015183820152602001612d82565b838111156110125750506000910152565b600181811c90821680612dbf57607f821691505b60208210811415612b2257634e487b7160e01b600052602260045260246000fd5b6000600019821415612df457612df4612e0f565b5060010190565b600082612e0a57612e0a612e25565b500690565b634e487b7160e01b600052601160045260246000fd5b634e487b7160e01b600052601260045260246000fd5b634e487b7160e01b600052604160045260246000fd5b6000813563ffffffff81168114610760578182fd5b8135612e7181612f47565b815460ff19811691151560ff16918217835564ffffffff00612e9560208601612e51565b60081b16808364ffffffffff1984161717845568ffffffff0000000000612ebe60408701612e51565b60281b168368ffffffffffffffffff1984161793508084831717855560608601359250612eea83612f32565b7fffffff0000000000000000000000000000000000000000ffffffffffffffffff93909316179190911760489190911b6901000000000000000000600160e81b031617905550565b6001600160a01b0381168114610d2b57600080fd5b8015158114610d2b57600080fd5b6001600160e01b031981168114610d2b57600080fdfe0001020903110a19042112290b311a3905412245134d2a550c5d32651b6d3a7506264262237d468514804e8d2b95569d0d495ea533a966b11c886eb93bc176c9071727374353637324837e9b47af86c7155181ad4fd18ed32c9096db57d59ee30e2e4a6a5f92a6be3498aae067ddb2eb1d5989b56fd7baf33ca0c2ee77e5caf7ff0810182028303840444c545c646c7425617c847f8c949c48a4a8b087b8c0c816365272829aaec650acd0d28fdad4e22d6991bd97dfdcea58b4d6f29fede4f6fe0f1f2f3f4b5b6b607b8b93a3a7b7bf357199c5abcfd9e168bcdee9b3f1ecf5fd1e3e5a7a8aa2b670c4ced8bbe8f0f4fc3d79a1c3cde7effb78cce6facbf9f8a26469706673582212205a1f7647f5b0f04da3a8fe3b8c9333bf67ee269ae078ec48dfdb43085b7329bb64736f6c63430008040033",
  "devdoc": {
    "kind": "dev",
    "methods": {
      "approve(address,uint256)": {
        "details": "See {IERC721-approve}."
      },
      "balanceOf(address)": {
        "details": "See {IERC721-balanceOf}."
      },
      "getApproved(uint256)": {
        "details": "See {IERC721-getApproved}."
      },
      "isApprovedForAll(address,address)": {
        "details": "See {IERC721-isApprovedForAll}."
      },
      "name()": {
        "details": "See {IERC721Metadata-name}."
      },
      "owner()": {
        "details": "Returns the address of the current owner."
      },
      "ownerOf(uint256)": {
        "details": "See {IERC721-ownerOf}."
      },
      "paused()": {
        "details": "Returns true if the contract is paused, and false otherwise."
      },
      "renounceOwnership()": {
        "details": "Leaves the contract without owner. It will not be possible to call `onlyOwner` functions anymore. Can only be called by the current owner. NOTE: Renouncing ownership will leave the contract without an owner, thereby removing any functionality that is only available to the owner."
      },
      "safeTransferFrom(address,address,uint256)": {
        "details": "See {IERC721-safeTransferFrom}."
      },
      "safeTransferFrom(address,address,uint256,bytes)": {
        "details": "See {IERC721-safeTransferFrom}."
      },
      "setApprovalForAll(address,bool)": {
        "details": "See {IERC721-setApprovalForAll}."
      },
      "supportsInterface(bytes4)": {
        "details": "See {IERC165-supportsInterface}."
      },
      "symbol()": {
        "details": "See {IERC721Metadata-symbol}."
      },
      "tokenByIndex(uint256)": {
        "details": "See {IERC721Enumerable-tokenByIndex}."
      },
      "tokenOfOwnerByIndex(address,uint256)": {
        "details": "See {IERC721Enumerable-tokenOfOwnerByIndex}."
      },
      "tokenURI(uint256)": {
        "details": "See {IERC721Metadata-tokenURI}."
      },
      "totalSupply()": {
        "details": "See {IERC721Enumerable-totalSupply}."
      },
      "transferFrom(address,address,uint256)": {
        "details": "See {IERC721-transferFrom}."
      },
      "transferOwnership(address)": {
        "details": "Transfers ownership of the contract to a new account (`newOwner`). Can only be called by the current owner."
      }
    },
    "version": 1
  },
  "userdoc": {
    "kind": "user",
    "methods": {},
    "version": 1
  },
  "storageLayout": {
    "storage": [
      {
        "astId": 2801,
        "contract": "contracts/MastersDAO.sol:MastersDAO",
        "label": "_batchHead",
        "offset": 0,
        "slot": "0",
        "type": "t_struct(BitMap)3844_storage"
      },
      {
        "astId": 2803,
        "contract": "contracts/MastersDAO.sol:MastersDAO",
        "label": "_name",
        "offset": 0,
        "slot": "1",
        "type": "t_string_storage"
      },
      {
        "astId": 2805,
        "contract": "contracts/MastersDAO.sol:MastersDAO",
        "label": "_symbol",
        "offset": 0,
        "slot": "2",
        "type": "t_string_storage"
      },
      {
        "astId": 2809,
        "contract": "contracts/MastersDAO.sol:MastersDAO",
        "label": "_owners",
        "offset": 0,
        "slot": "3",
        "type": "t_mapping(t_uint256,t_address)"
      },
      {
        "astId": 2811,
        "contract": "contracts/MastersDAO.sol:MastersDAO",
        "label": "_minted",
        "offset": 0,
        "slot": "4",
        "type": "t_uint256"
      },
      {
        "astId": 2815,
        "contract": "contracts/MastersDAO.sol:MastersDAO",
        "label": "_tokenApprovals",
        "offset": 0,
        "slot": "5",
        "type": "t_mapping(t_uint256,t_address)"
      },
      {
        "astId": 2821,
        "contract": "contracts/MastersDAO.sol:MastersDAO",
        "label": "_operatorApprovals",
        "offset": 0,
        "slot": "6",
        "type": "t_mapping(t_address,t_mapping(t_address,t_bool))"
      },
      {
        "astId": 7,
        "contract": "contracts/MastersDAO.sol:MastersDAO",
        "label": "_owner",
        "offset": 0,
        "slot": "7",
        "type": "t_address"
      },
      {
        "astId": 563,
        "contract": "contracts/MastersDAO.sol:MastersDAO",
        "label": "_paused",
        "offset": 20,
        "slot": "7",
        "type": "t_bool"
      },
      {
        "astId": 2334,
        "contract": "contracts/MastersDAO.sol:MastersDAO",
        "label": "contractURI",
        "offset": 0,
        "slot": "8",
        "type": "t_string_storage"
      },
      {
        "astId": 2336,
        "contract": "contracts/MastersDAO.sol:MastersDAO",
        "label": "__baseURI",
        "offset": 0,
        "slot": "9",
        "type": "t_string_storage"
      },
      {
        "astId": 2339,
        "contract": "contracts/MastersDAO.sol:MastersDAO",
        "label": "_voucherRedeemed",
        "offset": 0,
        "slot": "10",
        "type": "t_struct(BitMap)3844_storage"
      },
      {
        "astId": 2343,
        "contract": "contracts/MastersDAO.sol:MastersDAO",
        "label": "itemReservation",
        "offset": 0,
        "slot": "11",
        "type": "t_mapping(t_address,t_uint256)"
      },
      {
        "astId": 2347,
        "contract": "contracts/MastersDAO.sol:MastersDAO",
        "label": "whitelistRemain",
        "offset": 0,
        "slot": "12",
        "type": "t_mapping(t_address,t_uint256)"
      },
      {
        "astId": 2361,
        "contract": "contracts/MastersDAO.sol:MastersDAO",
        "label": "saleInfo",
        "offset": 0,
        "slot": "13",
        "type": "t_struct(SaleInfo)2358_storage"
      }
    ],
    "types": {
      "t_address": {
        "encoding": "inplace",
        "label": "address",
        "numberOfBytes": "20"
      },
      "t_bool": {
        "encoding": "inplace",
        "label": "bool",
        "numberOfBytes": "1"
      },
      "t_mapping(t_address,t_bool)": {
        "encoding": "mapping",
        "key": "t_address",
        "label": "mapping(address => bool)",
        "numberOfBytes": "32",
        "value": "t_bool"
      },
      "t_mapping(t_address,t_mapping(t_address,t_bool))": {
        "encoding": "mapping",
        "key": "t_address",
        "label": "mapping(address => mapping(address => bool))",
        "numberOfBytes": "32",
        "value": "t_mapping(t_address,t_bool)"
      },
      "t_mapping(t_address,t_uint256)": {
        "encoding": "mapping",
        "key": "t_address",
        "label": "mapping(address => uint256)",
        "numberOfBytes": "32",
        "value": "t_uint256"
      },
      "t_mapping(t_uint256,t_address)": {
        "encoding": "mapping",
        "key": "t_uint256",
        "label": "mapping(uint256 => address)",
        "numberOfBytes": "32",
        "value": "t_address"
      },
      "t_mapping(t_uint256,t_uint256)": {
        "encoding": "mapping",
        "key": "t_uint256",
        "label": "mapping(uint256 => uint256)",
        "numberOfBytes": "32",
        "value": "t_uint256"
      },
      "t_string_storage": {
        "encoding": "bytes",
        "label": "string",
        "numberOfBytes": "32"
      },
      "t_struct(BitMap)3844_storage": {
        "encoding": "inplace",
        "label": "struct BitMaps.BitMap",
        "members": [
          {
            "astId": 3843,
            "contract": "contracts/MastersDAO.sol:MastersDAO",
            "label": "_data",
            "offset": 0,
            "slot": "0",
            "type": "t_mapping(t_uint256,t_uint256)"
          }
        ],
        "numberOfBytes": "32"
      },
      "t_struct(SaleInfo)2358_storage": {
        "encoding": "inplace",
        "label": "struct MastersDAO.SaleInfo",
        "members": [
          {
            "astId": 2351,
            "contract": "contracts/MastersDAO.sol:MastersDAO",
            "label": "isPublic",
            "offset": 0,
            "slot": "0",
            "type": "t_bool"
          },
          {
            "astId": 2353,
            "contract": "contracts/MastersDAO.sol:MastersDAO",
            "label": "startTime",
            "offset": 1,
            "slot": "0",
            "type": "t_uint32"
          },
          {
            "astId": 2355,
            "contract": "contracts/MastersDAO.sol:MastersDAO",
            "label": "endTime",
            "offset": 5,
            "slot": "0",
            "type": "t_uint32"
          },
          {
            "astId": 2357,
            "contract": "contracts/MastersDAO.sol:MastersDAO",
            "label": "price",
            "offset": 9,
            "slot": "0",
            "type": "t_uint160"
          }
        ],
        "numberOfBytes": "32"
      },
      "t_uint160": {
        "encoding": "inplace",
        "label": "uint160",
        "numberOfBytes": "20"
      },
      "t_uint256": {
        "encoding": "inplace",
        "label": "uint256",
        "numberOfBytes": "32"
      },
      "t_uint32": {
        "encoding": "inplace",
        "label": "uint32",
        "numberOfBytes": "4"
      }
    }
  }
}